:020000040800F2
:1000000098080020ED0100084B3800085330000824
:1000100049380008310900081949000800000000AB
:10002000000000000000000000000000633B00082A
:10003000EF090008000000004D380008653B00088B
:10004000070200080702000807020008070200086C
:10005000070200080702000807020008070200085C
:100060000702000807020008070200083509000817
:1000700041090008070200080702000807020008FB
:10008000070200080000000007020008070200083D
:10009000070200080702000807020008070200081C
:1000A000070200080702000807020008070200080C
:1000B00007020008070200080702000807020008FC
:1000C00007020008070200080702000807020008EC
:1000D000070200080D49000807020008070200088F
:1000E00007020008070200080702000807020008CC
:1000F00007020008070200080702000800000000CD
:1001000000000000070200080000000007020008CD
:1001100007020008000000000702000807020008AC
:10012000070200080702000807020008070200088B
:10013000070200080000000000000000070200089D
:10014000070200080702000800000000000000008D
:10015000000000000000000000000000000000009F
:10016000000000000000000000000000070200087E
:10017000070200080000000000000000000000006E
:10018000000000000702000800000000000000005E
:10019000000000000000000000000000000000005F
:1001A000000000000000000007020008070200082D
:1001B000070200080702000807020008000000000C
:1001C000000000000702000800000000000000001E
:1001D0000702000807020008DFF80CD000F04EFB11
:1001E00000480047416A00089808002006488047F8
:1001F00006480047FEE7FEE7FEE7FEE7FEE7FEE70C
:10020000FEE7FEE7FEE7FEE7F53B0008D901000840
:100210002DE9F05F0546002092469B46884606463B
:10022000814640241BE0284641464746224600F0CE
:10023000E8F953465A46C01A914110D31146184660
:10024000224600F0CFF92D1A67EB01084F462246EF
:100250000120002100F0C6F917EB00094E41201ED5
:10026000A4F10104DFDC484631462A464346BDE896
:10027000F09FD2B201E000F8012B491EFBD270477B
:100280000022F6E710B513460A4604461946FFF762
:10029000F0FF204610BD2DE9FE4F804681EA0300A5
:1002A000C00F0C46009021F0004123F00045B8EB50
:1002B0000200A94105D24046214690461C460B4605
:1002C000024623F00040104347D0270DC7F30A0031
:1002D000C3F30A510290401A019040286BDAC3F32D
:1002E000130040F4801B0098924620B10023D2EB0B
:1002F000030A63EB0B0B01985946C0F140025046CC
:1003000000F070F906460D4650465946019A00F035
:1003100088F910EB08006141002487EA115284EA51
:10032000E7731A4340D0009A62B3019A012A4FEA58
:10033000075215DC001B61EB02014FF0004202EA9C
:100340000752CDE90042001C41F5801132462B4690
:1003500000F0BFF903B0BDE8F08F40462146F9E751
:10036000001B61EB0201001C41F5801300185B418A
:100370002018A2F5001747EB030140EAD570B61923
:100380006D4111E06D084FEA360645EAC0754FEA47
:100390000752001B61EB0201001C41F58011490866
:1003A0004FEA30000019514132462B4603B0BDE8F8
:1003B000F04F00F07FB90098012240000023D0EBFD
:1003C000020263EBE073009821464FEAE074B8EB59
:1003D000000061EB0401E9E783F000435BE781F093
:1003E000004158E72DE9FE4F81EA030404F0004480
:1003F00021F0004100944FF0000B23F0004350EA3D
:1004000001045ED052EA03045BD0C3F30A54C1F383
:100410000A552C44A4F2F3340194A0FB0254C1F316
:10042000130141F48011C3F3130343F4801301FB60
:10043000024400FB034E840A970A44EA815447EAC7
:100440008357A4FB076802958D0A05FB07854FEAD1
:10045000932C04FB0C542705029D4FEA065847EAEB
:100460001637B5EB08056EEB070C870E920E47EAC0
:10047000811742EA8312A7FB0201B6EB0B0164EB82
:1004800000042B0D43EA0C335E1844EB1C50DA4693
:100490005146E7FB0201C5F313044FEA0B3343EA6D
:1004A00014534FEA0432019C43EA0603A4F10C04FE
:1004B0000294009CCDE900B400F00BF903B0BDE854
:1004C000F08F00200146F9E70EB5C10F80EAE07019
:1004D0000844CA07002140F233438DE80E000A4663
:1004E0000B4600F0F6F803B000BD70B5C1F30A5238
:1004F00001F000450024C1F3130140F2FF3341F441
:1005000080119A4201DA002070BD40F233439A42D2
:10051000A2F2334203DC524200F073F800E0904054
:100520002C43F1D0404270BD00F0004230F000405A
:100530000AD0C10D01F56071C0F3160042EA015105
:10054000C208400711437047002001467047000071
:1005500030B5041E71F1000404DB4FF0004440424A
:1005600064EB0101141E73F1000405DB1C464FF01F
:100570000043524263EB0403994208BF904230BDEE
:1005800001F0004330B421F0004150EA010206D0EE
:100590000A0DA2F56072C1F31301002A02DC30BC1F
:1005A00000207047440F44EAC104C100E01830BC89
:1005B00000EBC25000F047B830B50B4601460020B2
:1005C0002022012409E021FA02F59D4205D303FA15
:1005D00002F5491B04FA02F52844151EA2F1010296
:1005E000F1DC30BD202A04DB203A00FA02F10020C1
:1005F00070479140C2F1200320FA03F31943904061
:100600007047202A04DB203A21FA02F000217047CB
:1006100021FA02F3D040C2F120029140084319466A
:100620007047202A06DBCB17203A41FA02F043EA52
:10063000E07306E041FA02F3D040C2F1200291409B
:100640000843194670470029A8BF7047401C49005D
:1006500008BF20F00100704710B4B0FA80FC00FA27
:100660000CF050EA010404BF10BC704749B1CCF152
:10067000200421FA04F411FA0CF118BF01212143DE
:100680000843A3EB0C01CB1D4FEA00614FEA102099
:1006900042BF002010BC704700EBC350104400293B
:1006A000A4BF10BC7047401C490008BF20F00100E7
:1006B00010BC704710B5141E73F1000408DA401C1A
:1006C00041F1000192185B411A4301D120F0010071
:1006D00010BD2DE9F04D92469B4611B1B1FA81F261
:1006E00002E0B0FA80F220329046FFF77BFF04462A
:1006F0000F4640EA0A0041EA0B0153465A460843B6
:1007000013D0114653EA010019D0C8F140025046F7
:10071000FFF777FF05460E46504659464246FFF71B
:1007200061FF084305D0012004E020463946BDE8BA
:10073000F08D0020054346EAE0762C4337430A98C3
:100740006305E40AA0EB08000022FD0A44EA4754CE
:100750000A3002D500200146E9E701051019694178
:10076000DDE9084500196941BDE8F04DA2E72DE932
:10077000F04D81EA030404F0004B21F000451446DB
:100780004FF0000A23F0004150EA050220D054EA5D
:1007900001021DD0C5F30A570246C5F31303C1F386
:1007A0001300C1F30A5640F4801543F48013A7EBFD
:1007B0000608101BD64608F2FD3873EB050002D37D
:1007C00008F1010801E092185B41B8F1000F03DA6B
:1007D00000200146BDE8F08D00204FF48011064650
:1007E00084460EE0171B73EB050705D3121B63EB62
:1007F000050306434CEA010C49084FEA3000921801
:100800005B4150EA0107EDD152EA030012D082EABF
:10081000040083EA0501084305D0101BAB4106D252
:100820000122002306E000224FF0004302E06FF0B7
:10083000010253101AEB06004CEB085110EB0A00B2
:1008400041EB0B01BDE8F04DFFF734BFC1F30A5295
:10085000C1F3130140F2FF3341F480119A4202DAEE
:1008600000200146704740F233439A42A2F23342DD
:1008700002DC5242FFF7C5BEFFF7B4BE064C074D7F
:1008800006E0E06840F0010394E807009847103460
:10089000AC42F6D3FFF7A4FCE88200080883000806
:1008A0000EB540F2334102910021CDE900110A4614
:1008B0000B46FFF70EFF03B000BD000070B5044605
:1008C0000068816811F0010F2DD18168174A11422B
:1008D0001AD18168D5432940491C816000F0C6FEC9
:1008E00006461BE0816811F0010F03D181682940A1
:1008F000491C816000F0BAFE801B02280ED92068D6
:100900000068C043C00709D0E06D40F01000E0650A
:10091000206E40F001002066012070BD2068016853
:10092000C943C907DED1002070BD00003F00008030
:10093000FEE70000014800F09ABC000028030020F8
:10094000014800F094BC0000380200200D49026804
:100950008A4201D20C4901E00B492031D2B2142362
:10096000083AB2FBF3F2436C02F01F0223F00303D8
:100970001944816404498031C164012191400165B9
:100980007047000008040240000802400179074A4D
:1009900002EB81024265054A4432491E826501F03C
:1009A0001F0201219140C16570470000FC08024010
:1009B00030B5D0E913456560446D14B1D0E91645F2
:1009C000656090F8444004F01F050124AC40056CBC
:1009D0006C60046863608368102B036803D09960BF
:1009E0000068C26030BD9A600068C16030BD704769
:1009F000002240F6B83306E00021491C89B2994232
:100A0000FBD3521C92B28242F6D3704772B6FEE715
:100A10002DE9F84F00270446009790F85800DFF8BA
:100A2000E0930D46B846012811D0012684F858609D
:100A3000206802F0F5FC60B1E06D40F02000E06558
:100A40005FF0010784F858803846BDE8F88F02202F
:100A5000FBE7D5E900210C23206803EA9113184431
:100A6000036B01F01F014FF01F0C0CFA01FCC2F3E5
:100A7000846223EA0C038A4013430363206802F074
:100A8000CFFC8246206802F0C7FC5AEA00003CD145
:100A9000AA6829682068B2F1004F37D002F0C4FC80
:100AA0002068416921F00041416120686969C2689C
:100AB000C2F3C102520091402A69042A31D000EBEE
:100AC00082002B68026EDFF83CC303F0F84302EAB1
:100AD0000C020B431A4342F00041016620682A6968
:100AE000A96900EB8200026E22F080720A4302665E
:100AF000297F22682869012910D0002102EB80009B
:100B0000026E22F000720A4302667DE0002202F0CB
:100B10008BFC2068416941F00041C5E74FF000714E
:100B2000ECE7002102F072FC400320684FF0000166
:100B300072D002F06BFC90FAA0F0B0FA80F1286855
:100B400042036ED090FAA0F0B0FA80F0814204D156
:100B500000221146206802F076FC0121206802F094
:100B600055FC400320684FF001015DD002F04EFCBF
:100B700090FAA0F0B0FA80F12868420359D090FAB8
:100B8000A0F0B0FA80F0814204D100220121206857
:100B900002F059FC0221206802F038FC4003206872
:100BA0004FF0020148D002F031FC90FAA0F0B0FA08
:100BB00080F12868420344D090FAA0F0B0FA80F0A7
:100BC000814204D100220221206802F03CFC032172
:100BD000206802F01BFC400320684FF0030133D073
:100BE00002F014FC90FAA0F0B0FA80F128684203F9
:100BF0002FD090FAA0F0B0FA80F0814204D1002208
:100C00000321206802F01FFC2068816811F0010FA9
:100C100022D0ACE000E004E002F0F8FBC0F3846115
:100C20008DE7C0F3846091E702F0F0FBC0F38461CC
:100C3000A2E7C0F38460A6E702F0E8FBC0F384619A
:100C4000B7E7C0F38460BBE702F0E0FBC0F3846168
:100C5000CCE7C0F38460D0E72A7B296850F8B03F26
:100C6000C1F3120C23EA0C0302F0180C664A22FAB4
:100C70000CF20A4013430360E968494577D12868BC
:100C800041031CD090FAA0F1B1FA81F1491C01F0A6
:100C90001F0109294FEA403132D8002912D000BF84
:100CA00090FAA0F1B1FA81F101F1010101F01F0107
:100CB00006FA01F609D100BFC0F3846109E0C0F370
:100CC0008461E3E7C0F38461EEE790FAA0F1B1FA42
:100CD00081F101F1010101F01F0146EA816102D1B8
:100CE000C0F3846003E090FAA0F0B0FA80F000F165
:100CF000010000F01F0000EB400041EA005132E02B
:100D000000290ED090FAA0F1B1FA81F101F10101B0
:100D100001F01F0106FA01F606D100BFC0F384619D
:100D200006E0C0F38461F1E790FAA0F1B1FA81F135
:100D300001F1010101F01F0146EA816102D1C0F316
:100D4000846003E090FAA0F0B0FA80F000F10100B6
:100D500000F01F002D4A00EB400002EB005041EA7A
:100D6000000141F00071AA68206802F05DFB28488C
:100D70002A6802423FF466AE26488168264B01F09D
:100D8000E0719A4202D0254B9A421CD10B021AD430
:100D90002268B2F1A04F7FF455AE826841F40001A1
:100DA00022F0E0720A4382601D481E490068B0FBD1
:100DB000F1F0401C00EB4000800000E0401E00907D
:100DC0000028FBD13EE6184D184BAA4207D1CD01B1
:100DD00005D422689A42F5D041F0807109E0144DA3
:100DE000AA42EFD14A02EDD422689A42EAD041F4F5
:100DF0008001826822F0E0720A43826022E60000ED
:100E000000007F4000F0FF03FFFF0700000020FE0E
:100E10000000088000030050000021C31000C090B3
:100E20000C000020400D0300000052C700010050DC
:100E3000000084CB0068006C70470000F8B54FF0EC
:100E4000000504002E46009502D0E06D10B107E0C9
:100E50000120F8BD204600F0EFF8266684F85860BF
:100E600020688168C1F3407119B181686A4A1140F4
:100E7000816020688168C1F3007189B98168674A1F
:100E8000114041F080518160654866490068B0FBBF
:100E9000F1F04000801C00E0401E00900028FBD1D3
:100EA00020688168C1F3007141B9E16D41F0100122
:100EB000E165216E41F001012166012502F0B0FAE1
:100EC000E16DC90600D430B1E06D40F01000E0657E
:100ED00001252846F8BDE06D20F4807040F0020046
:100EE000E0652068806810F0010F11D14FF0A0403C
:100EF00080684D4900F00100896801F00101084354
:100F000006D14A486168826822F47C120A438260F2
:100F1000E168E06B627F0843A16841EA423108431F
:100F200094F8241040EA0140012904D1218D404A5F
:100F300002EB41410843E16A29B101F47871226B67
:100F4000014342EA01002168CA683A4B1A40024351
:100F5000CA6020680169626B21F040611143016140
:100F6000206802F05DFA0646206802F055FA304328
:100F70002ED1207F94F83810800340EA4102206887
:100F8000C16844F2020399431143C16020690028FB
:100F9000206801690AD041F480310161206850F86D
:100FA000C01F22696FF30D01114307E021F4803166
:100FB0000161206850F8C01F6FF30D01016094F8C3
:100FC000400001280CD02068016921F00101016175
:100FD000606901282068016B21F00F0111D013E036
:100FE000D4E911010843D4E91312114308432168DD
:100FF0000A6940F2FC739A43104340F00100086113
:10100000E6E7226A521E11430163E06D20F0020000
:1010100040F00100E0655CE7C0FFFF5FC0FFFF7FBD
:101020000C000020400D03000001005000030050A0
:101030000000FEFF0740F0FF10B586B00446142103
:101040006846FFF71DF91149206888421BD11048F6
:10105000C16C41F40051C164C16C01F400510591AF
:10106000C16C41F00201C164C06C694600F002002D
:1010700005904FF400400090032001900020029062
:10108000044800F009FA06B010BD0000000100504D
:1010900000100240000400482DE9F04104463848A1
:1010A000806800F01F05206802F0BAF918B102212B
:1010B0000846BDE8F08194F8580001280CD00120C2
:1010C00084F858002046FFF7F9FB01004FF00003B9
:1010D00004D084F85830EBE70220EAE7E06D40F6F0
:1010E0000162904340F48070E065264A20684FF02A
:1010F000A046904201D1374600E00746874200D023
:101100001DB9E76D27F48017E765E76DFF0404D587
:10111000276E27F00607276600E023661C27076076
:1011200084F858302068904201D1334600E00346ED
:10113000834215D0A5B1052D12D0092D10D0E36D35
:1011400043F48013E365904200D13046C0688001CB
:10115000AED5E06D20F4005040F48050E065A7E784
:10116000C268920105D5E26D22F4005242F4805229
:10117000E2658268044B1A40121D826098E7000005
:101180000003005000010050C0FFFF7F10B590F831
:10119000253000210122022B03D00421C16301214B
:1011A00022E003681C6824F00E041C60836C1C6839
:1011B00024F480741C6003681C6824F001041C6023
:1011C00090F84430046C03F01F0302FA03F36360E9
:1011D000D0E913345C60436D33B11C6824F480742F
:1011E0001C60D0E916345C6080F82520002280F86D
:1011F0002420084610BD70B590F825200024012158
:101200002346022A07D00422C26380F8251080F802
:101210002430012429E00268156825F00E051560C8
:101220000268156825F001051560826C156825F4C3
:101230008075156090F84420056C02F01F0201FAD9
:1012400002F26A60D0E913255560426D32B115682B
:1012500025F480751560D0E91625556080F82510B5
:1012600080F82430816B01B18847204670BDF0B40E
:10127000016C0C6801680D6890F8442002F01F06AC
:10128000042202FA06F3234211D06B070FD50B6834
:101290009B0603D40B6823F004030B6090F8441002
:1012A00001F01F018A40016C4A60016B1DE00223BE
:1012B00003FA06F727424FF0000C4FF0010218D056
:1012C000AF0716D50C68A40605D40C6824F00A04F0
:1012D0000C6080F8252090F8441001F01F018B402D
:1012E000016C4B6080F824C0C16A00291AD0F0BCA0
:1012F00008470823B340234214D02B0712D50B68AC
:1013000023F00E030B6090F84410036C01F01F01F2
:1013100002FA01F15960C26380F8252080F824C0E8
:10132000416BE2E7F0BC704770B504000CD02B4A6B
:1013300021681420914209D2294A0A44B2FBF0F0F4
:101340008000606427480AE0012070BD234A5242B1
:101350000A44B2FBF0F08000606420480838206442
:10136000022084F825000A6847F6F0708243D4E929
:1013700002031843D4E904352B431843A3691843E7
:10138000E3691843236A1843104308602046FFF7B7
:10139000DDFAA0680025B0F5804F00D16560A16C32
:1013A00020790860D4E9130141606068401E032879
:1013B00008D82046FFF7EAFA606D0560D4E9160107
:1013C000416002E06565A565E565E563012084F897
:1013D000250084F82450002070BD0000080402405D
:1013E000F8FFFDBF0000024070B5044690F82400ED
:1013F000002501280CD0012084F8240094F82560F1
:101400000020012E06D084F824000225284670BD55
:10141000022070BD022684F82560E063206806681B
:1014200026F0010606602046FFF7C2FA206B00286E
:101430002068016802D041F00E0106E021F00401AD
:1014400001602068016841F00A010160A06C016838
:10145000C90303D5016841F480710160606D18B162
:10146000016841F4807101602068016841F0010168
:101470000160CBE770B5044600F0F8F80546601C43
:1014800002D004484068044400F0F0F8401BA04239
:10149000FAD370BD000000202DE9FC4FDFF8A0A1B9
:1014A000002301250AF1040B03244FF00F0C0BF16C
:1014B000040EBDE005FA03F632406FD04F68012FED
:1014C00005D0022F03D0112F01D0122F17D1D0F841
:1014D00008905F0004FA07F829EA08090097D1F894
:1014E0000C8008FA07F848EA0908C0F8088047683D
:1014F000B7430E79C6F300169E403E434660C66869
:101500004FEA430804FA08F7BE4301978F6807FAC9
:1015100008F73743C7604E68022E01D0122E13D150
:10152000DE0800EB86060096366A5F07FF0E0CFAAF
:1015300007F926EA0906D1F8109009FA07F949EAED
:101540000609009EC6F820900668019FBE430F79E9
:1015500007F0030707FA08F7374307604E68F600FD
:1015600065D5384E376E47F001073766366E23F083
:10157000030706F001060096334E3E44B146B668B6
:101580009F074FEA17780CFA08F7BE43B0F1904F67
:1015900005D02E4FB84204D1012717E047E00027BD
:1015A00014E02B4FB84201D102270FE0294FB84277
:1015B00001D103270AE0284FB84201D1042705E0F2
:1015C000264FB84201D1052700E0062707FA08F7A1
:1015D0003743C9F80870DAF800605746D1F804803C
:1015E00096435FEAC83800D516433E60DBF80060DA
:1015F0005F46D1F8048096435FEA883800D51643E9
:101600003E60DEF800607746D1F8048096435FEADA
:10161000C82800D516433E60094F0C373E68D1F804
:10162000048096435FEA882800D516433E605B1C21
:101630000A6832FA03F67FF43DAFBDE8FC8F000084
:101640000004014000100240000001400004004876
:1016500000080048000C0048001000480014004832
:101660000AB181617047816270470000014880685B
:101670007047000000000020024881684268114461
:10168000816070470000002010B50024032000F0A6
:1016900073F8002000F008F808B1012401E000F020
:1016A00025F8204610BD000070B50E4E05460024FA
:1016B000706898B14FF47A71B1FBF0F00A4909688B
:1016C000B1FBF0F000F064FD40B9102D06D200220D
:1016D0002946501E00F030F8356000E00124204615
:1016E00070BD0000000000200C0000200A4882B0FD
:1016F000016E41F001010166016E01F001010091EE
:10170000816D41F080518165806D00F080500090C6
:1017100002B000F0A1B8000000100240002809DB70
:1017200000F01F02012191404009800000F1E020FB
:10173000C0F8001170470000F0B40E4B1B680C4657
:10174000C3F30223C3F10705042D00D90425191D95
:10175000072901D2002300E0DB1E012606FA05F16D
:10176000491E214099409E40761E16403143F0BCF0
:1017700003F014B90CED00E0064900F00702086818
:101780004FF6FF03184040EA0220034A1043086066
:10179000704700000CED00E00000FA052B492C4BCF
:1017A0000A6832214A432B4940B1B0F5007F0868EE
:1017B00029D020F4C06040F480602CE00868C0F3B9
:1017C0004120022804D051F8800F20F4807022E0DC
:1017D000D1F8800020F48070C1F88000086820F4FF
:1017E000C06040F400700860B2FBF3F0401C00E001
:1017F000401E4A69520501D50028F9D148694005C3
:101800000AD503207047C0F34120022806D051F8C2
:10181000800F40F48070086000207047D1F880008D
:1018200040F48070C1F88000086820F4C06040F483
:1018300000700860B2FBF3F0401C00E0401E4A69F3
:101840005205DBD50028F9D1D8E700000C000020B4
:1018500040420F00007000400248816841F480411E
:1018600081607047007000402DE9F843044600682D
:1018700000269D4D00035ED5A86D0027C00008D44A
:10188000A86D40F08050A865A86D012700F0805039
:101890000090DFF85892D9F8001041F48071C9F82F
:1018A0000010FFF7E3FE804606E000BFFFF7DEFE14
:1018B000A0EB080002282BD8D9F80000C005F5D508
:1018C000D5F8900010F4407014D0216C814211D0F2
:1018D000D5F89000D5F8901020F4407041F4803194
:1018E000C5F89010D5F8901021F48031C5F890100B
:1018F000C5F89000C00711D0FFF7B8FE804641F24E
:10190000883907E0FFF7B2FEA0EB0801494501D98D
:1019100003260BE0D5F890008007F3D5D5F89000AA
:10192000216C20F440700843C5F890001FB1A86DE9
:1019300020F08050A8652078C00707D0D5F888002F
:10194000616820F003000843C5F88800207880070C
:1019500007D5D5F88800A16820F00C000843C5F829
:1019600088002078400707D5D5F88800E16820F086
:1019700030000843C5F888002078000707D5D5F85F
:101980008800216920F0C0000843C5F8880020784D
:10199000800607D5D5F88800616920F440600843C7
:1019A000C5F888002078400607D5D5F88800A169D9
:1019B00020F440500843C5F888002078000607D579
:1019C000D5F88800E16920F440400843C5F8880054
:1019D0002088C00507D5D5F88800216A20F440305A
:1019E0000843C5F888002088800507D5D5F8880009
:1019F000616A20F440200843C5F88800208840052B
:101A00000FD5D5F88800A16A20F440100843C5F826
:101A10008800A06AB0F5801F03D1E86840F4801008
:101A2000E860208800050FD5D5F88800E16A20F429
:101A300040000843C5F88800E06AB0F5800F03D184
:101A4000E86840F48010E8602088C0040FD5D5F81D
:101A50008800216B20F040700843C5F88800206B97
:101A6000B0F1807F03D1E86840F48010E8602088FE
:101A70004FF0006180040ED5D5F88800626B20F02D
:101A800040601043C5F88800606B884203D1E86865
:101A900040F48010E860208840040ED5D5F8880016
:101AA000A26B20F040601043C5F88800A06B88420C
:101AB00003D1E86840F48010E860208800040FD566
:101AC000D5F88800E16B20F040500843C5F8880045
:101AD000E06BB0F1805F03D1E86840F48030E860EB
:101AE0003046BDE8F883000000100240007000405E
:101AF0002DE9F0470E4605004FF0000725D0DFF82E
:101B0000AC81D8F8000000F00F00B0420CD2D8F839
:101B1000001021F00F013143C8F80010D8F8000080
:101B200000F00F00B04210D12968614CC80741F2A3
:101B3000883A5AD06868DFF87C91032808D00228D8
:101B400020682DD0400500282CDB0120BDE8F0875F
:101B500020688001F9D5E06800F00302E068C0F376
:101B60000310401C032A19D0534A00BFB2FBF0F007
:101B7000E268C2F306225043E268C2F34162521C9B
:101B80005200B0FBF2F0484517D9A06810F0F00FF2
:101B90000CD0880711D5A86840B10EE0474AE5E7A8
:101BA0008003D0E700F0B6F8484506D9A06820F0D9
:101BB000F00040F08000A0608027A068696820F0F5
:101BC00003000843A060FFF751FD814606E000BF17
:101BD000FFF74CFDA0EB090151453AD8A0686968B0
:101BE00000F00C00B0EB810FF2D12868810714D50A
:101BF000400703D5A06840F4E060A06028780007A3
:101C000005D5A06820F4605040F4E060A060A068B2
:101C1000A96820F0F000084304E0802F03D1A068F9
:101C200020F0F000A060D8F80010404601F00F014D
:101C3000B14216D9016821F00F0131430160FFF76D
:101C400015FD074607E000BFFFF710FDC11B51451A
:101C500001D903207AE7D8F8000000F00F00B04265
:101C6000F2D12878400705D5A068E96820F4E06043
:101C70000843A0602878000706D5A068296920F4E9
:101C8000605040EAC100A06000F044F8A1680C4A2E
:101C9000C1F30311515C01F01F01C84009490860FC
:101CA00009480068BDE8F047FFF7FEBC002002408D
:101CB0000010024000B4C4040024F40000366E0199
:101CC000406F00080C000020000000200548064975
:101CD00000688968054AC1F30221515C01F01F01C7
:101CE000C84070470C00002000100240506F0008F0
:101CF0000548064900688968054AC1F3C221515C5C
:101D000001F01F01C84070470C0000200010024085
:101D1000506F0008184910B58868C0F38102174851
:101D2000012A0BD08A68164BC2F38102022A06D020
:101D30008A68C2F38102032A03D0002010BD18462E
:101D400010BDCA6802F00304CA68C2F30312521C31
:101D5000032C02D0B0FBF2F001E0B3FBF2F0CA6852
:101D6000C968C2F306225043C1F34161491C4900CE
:101D7000B0FBF1F010BD0000001002400024F400A0
:101D800000366E012DE9F84304007AD02078FA4D30
:101D9000C00747D0A868E96800F00C0001F0030113
:101DA0000C2802D0082817D001E0032914D060685D
:101DB000B0F5803F17D0B0F5A02F286817D020F4D9
:101DC00080302860286820F4802028606068E0B1B6
:101DD000FFF74CFC064614E02868800322D56068B3
:101DE0000028D2D01EE0286840F48030EDE740F4AF
:101DF00080202860F7E700BFFFF738FC801B6428CD
:101E000070D828688003F7D50CE0FFF72FFC064652
:101E100005E000BFFFF72AFC801B6428F0D8286883
:101E20008003F7D4207880074CD5A868E96800F0D3
:101E30000C0001F003010C2802D004280DD001E0B1
:101E400002290AD0E068002828682BD040F480706E
:101E50002860FFF70BFC064619E02868400502D50C
:101E6000E068002891D06868217C20F0FE4040EABC
:101E700001606860C1480068FFF716FC002800D1C7
:101E800020E076E1FFF7F2FB801B0228B8D8286833
:101E90004005F7D56868217C20F0FE4040EA0160EB
:101EA00068600FE020F480702860FFF7DFFB0646D3
:101EB00005E000BFFFF7DAFB801B0228A0D82868E6
:101EC0004005F7D42078000729D560690028D5F8A7
:101ED000940013D040F00100C5F89400FFF7C6FB52
:101EE000064606E090E000BFFFF7C0FB801B02281B
:101EF00086D8D5F894008007F6D510E020F00100D0
:101F0000C5F89400FFF7B2FB064604E0FFF7AEFB0E
:101F1000801B022878D8D5F894008007F6D4207862
:101F2000400761D5A86D0026C00008D4A86D40F018
:101F30008050A865A86D012600F080500090904860
:101F40000168C90511D40168804641F480710160BF
:101F5000FFF78CFB074604E0FFF788FBC01B022855
:101F600052D8D8F80000C005F6D5A068012815D0D1
:101F70000528D5F8900016D020F00100C5F8900093
:101F8000D5F8900020F00400C5F89000A06841F258
:101F90008838B8B1FFF76AFB07460EE0D5F8900025
:101FA00040F00100F0E740F00400C5F89000F5E7CC
:101FB000FFF75CFBC11B414526D8D5F89000800790
:101FC000F6D50CE0FFF752FB074604E0FFF74EFBA7
:101FD000C11B414518D8D5F890008007F6D41EB132
:101FE000A86D20F08050A8652078800629D5A069CA
:101FF0000028D5F8980013D040F00100C5F89800EB
:10200000FFF734FB064606E077E000BFFFF72EFB44
:10201000801B022877D8D5F898008007F6D510E005
:1020200020F00100C5F89800FFF720FB064604E009
:10203000FFF71CFB801B022865D8D5F898008007A5
:10204000F6D4E069F0B3A968C1F38101032961D036
:102050000228286820F0807028600BD0E86820F003
:102060000300E860E86847490840E860FFF7FEFAC7
:1020700004464BE0FFF7FAFA064604E0FFF7F6FAEB
:10208000801B02283FD828688001F7D4F4E90801B2
:102090006FF00F0202EB01110843218A5204490834
:1020A00002EB4151A26841EA02210843217D4FF031
:1020B0007E42490802EB41610843217B40EAC1604E
:1020C000E96800E062E0304A11400843E8602868AF
:1020D00040F080702860E86840F08070E860FFF7AA
:1020E000C5FA044605E000BFFFF7C0FA001B02284E
:1020F00009D828688001F7D548E004E0FFF7B6FA70
:10210000001B022802D90320BDE8F883286880015B
:10211000F4D43BE00128F7D0E868226A00F003011C
:10212000914226D1616A00F0F00209011039914212
:102130001FD1A26A00F4FE41B1EB022F19D194F82D
:102140002C2000F07841B1EBC26F12D1218E00F447
:10215000C00249084905A1F50011914209D194F83E
:10216000341000F0C06049084906A1F100718142B5
:102170000CD00120C8E70000001002400000002041
:1021800000700040FFFFEEFE0C809F010020BBE7C7
:1021900010B5401EB0F1807F01D3012010BD4FF07B
:1021A000E02460610F21601702F0F8FB0020A061BD
:1021B00007202061002010BDF0B590F83C20012AD6
:1021C0004AD0012280F83C20CA688B6822F4407211
:1021D0001A434B6822F480621A430B6822F40062AF
:1021E0001A430B6922F480521A434B6922F40052BD
:1021F0001A430B6B22F480421A430B8B22F4702299
:1022000042EA0342154C03680026154DA34201D053
:10221000AB4203D1CF6922F080523A43A34201D0AE
:10222000AB4214D10F8D22F4700242EA07520F6ABA
:1022300022F080723A434F6A22F000723A43A3427E
:1022400001D0AB4203D1C96A22F000520A435A645A
:1022500080F83C600020F0BD0220F0BD002C014061
:1022600000340140F0B590F83C20012A3AD0012515
:1022700080F83C50022280F83D2003685A689C6830
:10228000194E1A4FB34201D0BB4204D122F4700C54
:102290004A6842EA0C02DFF858C002EA0C02D1F8A0
:1022A00000C04CEA020CC3F804C00268B2420DD070
:1022B000B2F1804F0AD00F4B9A4207D00E4B9A4290
:1022C00004D0BA4202D00D4B9A4204D1896824F05E
:1022D00080031943916080F83D50002180F83C1044
:1022E0000846F0BD0220F0BD002C01400034014042
:1022F0008FFFFFFD00040040000800400040014047
:1023000010B5040003D094F83D0010B107E001209F
:1023100010BD002084F83C00204600F023F8022085
:1023200084F83D00211D206801F06CFC012084F838
:10233000480084F83E0084F83F0084F8400084F8A8
:10234000410084F8420084F8430084F8440084F893
:10235000450084F8460084F8470084F83D000020DA
:1023600010BD000070B586B0064614216846FDF722
:1023700087FF30682949B0F1804F0AD0284A90423F
:102380003FD1086E40F400300866086E00F400305B
:1023900041E0886D40F001008865886D00F0010023
:1023A0000590C86C40F00100C864C86C002500F0BE
:1023B000010005904FF4004000900220CDE9010596
:1023C0000120CDE9035069464FF09040FFF764F8D3
:1023D000154C144820603820C4E901058020C4E968
:1023E0000350800060618000C4E906052046256234
:1023F000FEF79AFF08B1FEF709FB7462A66206B009
:1024000070BD0A4A9042FAD1086E40F480200866F6
:10241000086E00F480200590F1E7000000100240F3
:10242000004401401C0002403802002000480140E6
:1024300070B5044690F83C00012814D0012584F8BA
:102440003C50022084F83D0022689068344B1840CC
:1024500020F47F4090600868702827D010DC10F0CE
:102460000F0F03D04AE04FF0020070BD4FEA201278
:10247000072A43D2DFE802F050505050483139006B
:10248000284BC21A984247D009DCB0F5805F35D09E
:10249000B0F5005F15D0B0F1101F2FD13CE0102A2D
:1024A0003AD0202A38D0502A28D135E0CB68D1E95B
:1024B0000121206801F088FC2068816841F07701E3
:1024C00009E0CB68D1E90121206801F07DFC20689A
:1024D000816841F48041816010E0CA6849682068E1
:1024E00001F06CFE5021206806E0CA684968206847
:1024F00001F0ACFE6021206801F070FC84F83D50D2
:10250000002084F83C0070BDCA684968206801F06A
:1025100055FE40212068EFE7226801461046EBE7B0
:1025200088FFCEFF200010007047704770472DE9EC
:10253000F041054690F83C000C46012836D00120B9
:1025400085F83C008AB3042A42D02868082A51D072
:10255000D4E90023E168066A26F480560662C6695B
:10256000076A26F4407646EA03234FF6FF7606EA2A
:10257000013123F4704319434FF4204627F42043DC
:1025800006EA02321A43C16102622868C16921F475
:102590004061C1612868C169A26841EA0221C16144
:1025A000002085F83C00BDE8F08101E00220FAE758
:1025B000D4E90012E368286801F012FE28688169F6
:1025C00021F00C01816128688169A26811430FE044
:1025D000D4E90012E368286801F04AFE286881699E
:1025E00021F44061816128688169A26841EA022181
:1025F0008161D5E7D4E90027267B016A21F4807147
:102600000162C169036A21F00301394321F0F00737
:1026100031074FF4206647EA116123F4206306EA8C
:1026200002221A43C16102622868C16921F00C01CB
:10263000C1612868C169A2681143B0E710B5040000
:1026400003D094F83D0010B107E0012010BD002038
:1026500084F83C00204600F022F8022084F83D0077
:10266000211D206801F0CEFA012084F8480084F88A
:102670003E0084F83F0084F8400084F8410084F86C
:10268000420084F8430084F8440084F8450084F84C
:10269000460084F8470084F83D00002010BD7047D4
:1026A0002DE9F0410D00044613D0042D16D0082D5D
:1026B00019D00C2D1CD0102D1DD094F8430000BF54
:1026C00094F84710022819D0022917D0012818D0F1
:1026D000ADE094F83E0094F84410F3E794F83F001E
:1026E00094F84510EEE794F8400094F84610E9E7B6
:1026F00094F84100E4E794F84200E1E70220BDE8E5
:10270000F081012966D10AB9002B63D14B494C4EA7
:102710004C4F02207DB1042D1ED0082D2DD00C2D44
:102720003CD0102D3DD084F8430000BF84F8470012
:102730000C2D43D16FE084F83E0084F84400606AB9
:10274000C162606A0663606A47632168606A343107
:10275000FEF74AFEF0BB27E084F83F0084F845000E
:10276000A06AC162A06A0663A06A47632168A06A82
:102770003831FEF739FE68BB1BE084F8400084F86E
:102780004600E06AC162E06A0663E06A4763216866
:10279000E06A3C31FEF728FEE0B937E084F84100FA
:1027A000C4E784F84200C1E72068C16841F40071C1
:1027B00003E02068C16841F48061C16001222946BC
:1027C000206801F077FA20492068884210D0B0F1E3
:1027D000804F00E02BE00BD01C49884208D01C49F8
:1027E000884205D01B49884202D01B49884207D144
:1027F00081681A4A1140062906D0B1F5803F03D0FE
:10280000016841F001010160002078E72068C1689B
:1028100041F40061D1E7206BC162206B0663206B3D
:1028200047632168206B4031FEF7DEFD08B10120CF
:1028300065E72068C16841F48051BEE7CF3C0008DD
:102840003D3D0008753D0008002C0140000400409B
:102850000008004000340140004001400700010032
:1028600070B586B0044614216846FDF709FD154E83
:10287000256800221449022401234FF09040B542FC
:1028800009D1CD6C45F00105CD64C96C01F00101A1
:10289000059140210BE00D4EB54210D1CD6C45F0B5
:1028A0000105CD64C96C01F0010105918021009101
:1028B000CDE901426946CDE90323FEF7EDFD06B0FF
:1028C00070BD00000044014000100240004801407B
:1028D00070B5044690F83C000D4601280BD001204D
:1028E00084F83C000C2A45D007DC5AB1042A1BD0DE
:1028F000082A78D12CE0022070BD102A4ED0142A6C
:1029000071D15DE0206801F073FA2068816941F0BF
:10291000080181612068816921F0040181612068DA
:1029200081692A69114311E0206801F0AFFA20683B
:10293000816941F4006181612068816921F48061CD
:102940008161206881692A6941EA022181614AE046
:10295000206801F0E3FA2068C16941F00801C16113
:102960002068C16921F00401C1612068C1692A6938
:10297000114311E0206801F019FB2068C16941F49E
:102980000061C1612068C16921F48061C161206872
:10299000C1692A6941EA0221C16124E0206801F08D
:1029A0004DFB2068016D41F0080101652068016D53
:1029B00021F0040101652068016D2A69114311E0CD
:1029C000206801F073FB2068016D41F4006101652E
:1029D0002068016D21F4806101652068016D2A691C
:1029E00041EA02210165002084F83C0070BD10B569
:1029F000040003D094F83D0010B107E0012010BDA1
:102A0000002084F83C00204600F022F8022084F8E0
:102A10003D00211D206801F0F5F8012084F84800F0
:102A200084F83E0084F83F0084F8400084F84100B8
:102A300084F8420084F8430084F8440084F8450098
:102A400084F8460084F8470084F83D00002010BD5B
:102A5000704770B5044690F83C00012812D001255B
:102A600084F83C50022084F83D00204601F056FBDB
:102A700001004FF0000007D084F83D5084F83C007E
:102A8000012070BD022070BD2168CA6822F040029A
:102A9000CA602168CA6822F48042CA6084F83D5046
:102AA00084F83C00002070BD90F88010012918D0F7
:102AB000012180F880102421C0F8841050F8641B94
:102AC0000A680B6823F001030B6022F0005100221A
:102AD000026050F8643C19602021016202771046C0
:102AE00070470220704710B50446D0F888002028AF
:102AF0001CD181B17AB194F88000012816D0012050
:102B000084F88000E066204601F06CFE002803D1C6
:102B1000E16E012901D0012010BD2268102111624F
:102B200021680A6842F010020A6010BD022010BD40
:102B300010B5084904460120087232220649204691
:102B4000FFF7D1FFE06F0068016821F00401016028
:102B500010BD00001800002088030020704770B5E9
:102B6000044690F8800001281DD0012084F88000E0
:102B70002420C4F8840020680568026822F001025D
:102B800002602068826822F060620A438260204608
:102B900001F09EFB206805602020C4F8840000201E
:102BA00084F8800070BD022070BD70B5044690F8B6
:102BB000800001281DD0012084F880002420C4F862
:102BC000840020680568026822F001020260206823
:102BD000826822F060420A438260204601F078FB5E
:102BE000206805602020C4F88400002084F880005C
:102BF00070BD022070BD7047704770472DE9F041ED
:102C000003680446D86919689A6840F60F05284297
:102C10004FF0000509D186067ED501F0200602F0AE
:102C200080573E4378D0216FFFE0924E924F16407E
:102C30000F40374370D0C70709D0CF0507D501270C
:102C40001F62D4F88C3043F00103C4F88C30830742
:102C50000AD5D30708D0276802233B62D4F88C300A
:102C600043F00403C4F88C3043070AD5D30708D0D7
:102C7000276804233B62D4F88C3043F00203C4F885
:102C80008C3003070CD501F02003334308D02668AD
:102C900008233362D4F88C3043F00803C4F88C3036
:102CA00003050BD54B0109D526684FF40063336249
:102CB000D4F88C3043F02003C4F88C30D4F88C3036
:102CC000002B34D0800609D501F0200002F080519D
:102CD000084303D0216F09B120468847D4F88C00FF
:102CE00021688968490602D410F0280F21D02046B7
:102CF00001F014FC20688168490615D5816821F02F
:102D000040018160E06F78B15C498163E06FFEF75C
:102D100072FA00280BD000E011E0E06F816B00E058
:102D20002046BDE8F04108472046FFF766FFBDE8B2
:102D3000F0812046FFF761FFC4F88C50F7E7E76E9B
:102D40002026012F5CD1C7065AD5CF0658D51020B2
:102D500018622068816849062FD5E26F11684968BA
:102D60000904090CE3D0B4F85C308B42DFD9A4F835
:102D70005E1011680968890618D4016821F4807111
:102D800001602068816821F001018160206881680C
:102D900021F040018160C4F88860E5662068016820
:102DA00021F010010160E06FFEF7F0F9B4F85C006B
:102DB000B4F85E10401A81B21EE0B4F85C10B4F8AA
:102DC0005E20891AB4F85E2089B2002AAFD00029AB
:102DD000ADD0026822F49072026020688268254BB0
:102DE000DB431A408260C4F88860E5662567206886
:102DF000026822F0100202602046FFF799FE96E773
:102E0000C70209D5570207D54FF480101862204633
:102E1000BDE8F041FFF7F0BE07060AD501F08007D4
:102E200002F40002174304D0616F00297FF478AFE9
:102E30007DE742060CD54A060AD51968204621F0DE
:102E400040011960C4F88460656700F001F96EE71D
:102E5000020206D54A0004D52046BDE8F041FFF73E
:102E6000CABEC001CBD50029C9DA2046BDE8F04171
:102E7000FFF774BE01000010200100043D4400086B
:102E800010B5040003D0D4F8840010B107E001208D
:102E900010BD002084F88000204600F027F8242090
:102EA000C4F884002068016821F001010160204617
:102EB00001F05EFB0128EBD0A06A10B1204601F0C2
:102EC00029FA2068416821F49041416020688168B6
:102ED00021F02A0181602068016841F00101016050
:102EE0002046BDE8104001F079BA000070B586B008
:102EF000064614216846FDF7C3F921493068884227
:102F00003CD12049086E40F480400866086E00F409
:102F100080400590C86C40F00100C864C86C002572
:102F200000F0010005904FF4C06000900220CDE950
:102F300001050720CDE9035069464FF09040FEF7A8
:102F4000ABFA124C104820601820C4E9010580201B
:102F5000C4E903506561A561E56120462562FEF77D
:102F6000E3F908B1FDF752FDF46700221146252070
:102F7000A662FEF7E1FB2520FEF7D0FB06B070BD90
:102F800000380140001002400800024028030020E1
:102F9000704770472DE9F8430446D0F884001F4677
:102FA00016460D46202851D1DDB1D6B194F88000E7
:102FB00001284BD0012084F880004FF00008C4F8AD
:102FC0008C802120C4F884001834FEF74FFBA687BC
:102FD0008146E68754F8100C183CB0F5805F03D0AA
:102FE00004E00120BDE8F883206920B12E460025C9
:102FF00084F8808010E00026FAE78021204601F066
:1030000033FCB8B9C6B116F8010B21688862B4F870
:103010005600401EA4F85600B4F856004B464FF038
:10302000000200970028E8D14FF04001204601F04F
:103030001BFC30B10320D5E735F8020BC0F30800C4
:10304000E3E72020C4F884000020CBE70220C9E792
:103050007047FEE700B585B014216846FDF710F90A
:103060004FF6FF70009000200321CDE9020101908E
:1030700069460248FEF710FA05B000BD0008004896
:1030800000B585B014216846FDF7FAF84FF6FF70D9
:1030900000900120019003200390002002906946D7
:1030A0000248FEF7F9F905B000BD0000000800482D
:1030B00070B5002406462146204600F003F900F0D2
:1030C00041F94FF49635304600F010F9641CAC42DB
:1030D000F9D370BD70B586B014216846FDF7D0F8FD
:1030E0001E48C16C41F00401C164C16C01F00401CF
:1030F0000591C16C41F00101C164C16C01F0010195
:103100000591C16C41F00201C164C06C032500F05F
:10311000020005904FF448700124002603958DE8C5
:10312000510069460E48FEF7B7F9200203958DE875
:1031300051004FF0904469462046FEF7ADF9FFF785
:103140009FFFA06940F48070A061054818300168B5
:1031500041F40871016006B070BD0000001002402B
:1031600000040048203AD2B2034B02EB420203EBC8
:10317000021200F019B80000586F0008F0B50E46B2
:103180000746002540F23F1407E021463846FFF786
:10319000E9FF103C6D1CA4B2761C3278002A01D0E5
:1031A000142DF2D3F0BD00002DE9F04791468A4678
:1031B0000026044600F086F8DFF84080012700BFB3
:1031C00000F0C0F85FF0000539F8160007FA05F1C5
:1031D0000842404601D1408800E0008800F086F8AF
:1031E0006D1C102DF0D3641CE4B25146204600F053
:1031F00069F8761C182EE3D3BDE8F0871000002094
:1032000010B5FFF767FF002000F014F8084CA0800D
:10321000A088A0F50241303906D000F0A1FB0020C3
:1032200000F008F8A08010BD00F011FBF7E70000E7
:103230001000002070B51D490A6842F400720A604F
:103240000A6842F480720A60184C103C226842F00E
:1032500020022260164A1060086840F020000860D2
:1032600000BF00BF00BF206840F020002060206841
:1032700040F480702060FFF7EDFE4FF09041886AC7
:1032800040F48070886200BF00BF00BF0848001F84
:10329000006885B2886940F480708861FFF7F0FEAD
:1032A000206840F400702060284670BD2804004863
:1032B0001408004801B5BDF800000149488008BD68
:1032C0001000002010B50C460146202000F068F8E0
:1032D0002146BDE81040212000F062B801B5BDF8DC
:1032E00000000149088008BD10000020134A116841
:1032F00041F400711160114910390B6843F4807377
:103300000B600B6843F020030B600D4B18601068D6
:1033100040F02000106000BF00BF00BF086840F010
:1033200020000860086840F48070086000BF00BF9B
:1033300000BF086840F40070086070472804004827
:10334000140800481449086840F4007008600868D0
:1033500040F48070086010481038026842F0200283
:1033600002600E4B22221A600A6842F020020A60B4
:1033700000BF00BF00BF016841F02001016001688B
:1033800041F48071016000BF00BF00BF016841F4DB
:1033900000710160704700002804004814080048CC
:1033A000184B10B51A6842F400721A601A6842F499
:1033B00080721A60134A103A146844F020041460B2
:1033C000114C2060186840F02000186000BF00BF5A
:1033D00000BF106840F020001060106840F480705A
:1033E00010602160186840F02000186000BF00BF26
:1033F00000BF106840F020001060106840F480703A
:10340000106010BD280400481408004800EB81003B
:10341000006E00F0F84070478068C0F3C00070474D
:103420008068C0F380007047042303EAD15310B5CD
:1034300018444369C1F3045107248C40A3438A40D4
:103440001343436110BD00EB8100016E21F0004188
:10345000114301667047000030B589B020216846ED
:10346000FCF70EFF19481849002401604902C0E921
:103470000114C46004250461C0E90545047744775C
:103480000121016280F82440C462046380F838405E
:10349000C46380F84040FDF7D1FC08B1FDF7B6FAEF
:1034A0000B48009006200190072002907F20059491
:1034B000CDE9030569460548FDF7AAFA002801D0C1
:1034C000FDF7A4FA09B030BD00010050E80000206B
:1034D0000080F03E114808B5816C41F00401816420
:1034E000816C01F004010091816C41F00101816463
:1034F000806C002200F00100009011460B20FEF7C6
:103500001BF90B20FEF70AF9002211460C20FEF7EA
:1035100013F9BDE808400C20FEF700B90010024086
:10352000F0B587B014216846FCF7AAFE2D48C16C9F
:1035300041F00401C164C16C01F004010591C16C4A
:1035400041F02001C164C16C01F020010591C16C02
:1035500041F00101C164C16C01F001010591C16C30
:1035600041F00201C164C16C01F002010591C16C1E
:1035700041F00801C164C06C1B4E00F008004FF41C
:103580007F440590002221463046FEF769F8174F28
:10359000002204213846FEF763F80125CDE90045F5
:1035A00000240294694630460394FDF775FFCDE987
:1035B000005469464FF090400294FDF76DFF0720DC
:1035C000CDE9000469460A480294FDF765FF04202E
:1035D0000090CDE90154694638460394FDF75CFF3D
:1035E00007B0F0BD0010024000080048000C004881
:1035F0000004004810B594B01C210DA8FCF740FE53
:1036000034216846FCF73CFE20481F490024016035
:103610004F21C0E9011440F2E731C0E903148021D1
:10362000C0E90541FEF76CFE08B1FDF7EFF9174858
:10363000FFF7DDF908B1FDF7E9F96020CDE90D04E8
:103640000F9410941194129400220DA90F48139412
:10365000FFF73EF908B1FDF7D9F900944FF4005097
:10366000CDE9044001940294039406946946074806
:103670000C94FEF7A1FD08B1FDF7C8F90348FFF768
:10368000EFF814B010BD000000440140A00100207C
:1036900010B594B01C210DA8FCF7F2FD342168464A
:1036A000FCF7EEFD20481F49002401604F21C0E9CE
:1036B000011440F2E731C0E903148021C0E905415B
:1036C000FEF71EFE08B1FDF7A1F91748FFF78FF9C5
:1036D00008B1FDF79BF96020CDE90D040F9410941B
:1036E0001194129400220DA90F481394FFF7F0F8DB
:1036F00008B1FDF78BF900944FF40050CDE9044078
:103700000194029403940694694607480C94FEF7CA
:1037100053FD08B1FDF77AF90348FFF7A1F814B09B
:1037200010BD000000480140EC01002010B590B031
:10373000002409940A940B94142104A80C94FCF717
:103740009FFD26480D940F940E94009401940294CA
:103750004FF080410394C0E90014611EC0E90241AA
:1037600004618461FEF7CCFD08B1FDF74FF94FF419
:103770008050099009A91948FEF75AFE08B1FDF7D3
:1037800045F91648FEF75AFF08B1FDF73FF9042046
:1037900004905020CDE9050404A910480894FFF7CF
:1037A00058F908B1FDF732F90D940DA90B480F94A3
:1037B000FEF758FD08B1FDF729F90120CDE90040D9
:1037C00002940022694605480394FEF7B0FE0028E3
:1037D00001D0FDF71BF910B010BD0000540100200E
:1037E000184810B5164901604FF416514160002188
:1037F00081600C22C160C0E904128161C161016273
:1038000041628162FFF73CFB08B1FDF7FFF8002140
:103810000C48FFF7CAF908B1FDF7F8F8002109488C
:10382000FFF79DF908B1FDF7F1F80648FFF73CF9FD
:10383000002803D0BDE81040FDF7E8B810BD000037
:103840000038014098020020FEE7FEE7704730B5DF
:1038500001210020FFF7A4FD4FF47A70FDF7C8F8AE
:1038600000210120FFF79CFD41F290711020FFF72D
:1038700097FD4FF41C516020FFF792FD012161205C
:10388000FFF78EFD02214620FFF78AFD48F2100166
:103890001320FFF785FD48F2FE011220FFF780FD9F
:1038A0004FF4A0610220FFF77BFD41F230010320BD
:1038B000FFF776FD40F2033421463020FFF770FD1C
:1038C00021463120FFF76CFD21463220FFF768FDCD
:1038D000E51E29463320FFF763FD03213420FFF75F
:1038E0005FFD21463520FFF75BFD14213620FFF7F1
:1038F00057FD21463720FFF753FD21463820FFF7BB
:103900004FFD21463920FFF74BFD29463A20FFF7AE
:1039100047FD03213B20FFF743FD21463C20FFF7F5
:103920003FFD4FF4A0513D20FFF73AFD4FF40071E9
:103930009220FFF735FD21469320FFF731FD40F639
:103940000D019020FFF72CFD41F218010320FFF735
:1039500027FDBDE8304040F273110720FFF720BD7E
:1039600010B543F20801E320FFF71AFD1221E7200A
:10397000FFF716FD41F23121EF20FFF711FD002185
:103980000120FFF70DFD4FF4E0610220FFF708FD75
:1039900041F230010320FFF703FD00210420FFF76F
:1039A000FFFC40F207210820FFF7FAFC0021092064
:1039B000FFF7F6FC00210A20FFF7F2FC00210C20A3
:1039C000FFF7EEFC00210D20FFF7EAFC00210F209D
:1039D000FFF7E6FC00211020FFF7E2FC0721112091
:1039E000FFF7DEFC00211220FFF7DAFC0021132094
:1039F000FFF7D6FCC820FDF73DFD41F29061102095
:103A0000FFF7CEFC40F227211120FFF7C9FC32203E
:103A1000FDF730FD1D211220FFF7C2FC3220FDF71B
:103A200029FD4FF400611320FFF7BAFC142129206F
:103A3000FFF7B6FC0B212B20FFF7B2FC3220FDF77D
:103A400019FD00212020FFF7ABFC00212120FFF70A
:103A5000A7FC07213020FFF7A3FC40F207713120BB
:103A6000FFF79EFC06213220FFF79AFC40F204711A
:103A70003520FFF795FC41F604713620FFF790FCE6
:103A800004213720FFF78CFC00213820FFF788FC49
:103A900040F206713920FFF783FC40F201713C20AF
:103AA000FFF77EFC0F213D20FFF77AFC002150201C
:103AB000FFF776FCEF215120FFF772FC0021522026
:103AC000FFF76EFC40F23F115320FFF769FC4FF403
:103AD0001C516020FFF764FC01216120FFF760FCAE
:103AE00000216A20FFF75CFC00218020FFF758FCD2
:103AF00000218120FFF754FC00218220FFF750FCB9
:103B000000218320FFF74CFC00218420FFF748FCB4
:103B100000218520FFF744FC10219020FFF740FC96
:103B200000219220FFF73CFC03219320FFF738FC93
:103B30004FF488719520FFF733FC00219720FFF7A1
:103B40002FFC00219820FFF72BFC41F218010320E5
:103B5000FFF726FCBDE8104040F273110720FFF785
:103B60001FBC7047FDF788BD10B5A4B0382168466A
:103B7000FCF786FB14211FA8FCF782FB44210EA84A
:103B8000FCF77EFB4FF40070FDF708FE0220C10138
:103B90000391402104910121CDE9080100900A21FF
:103BA000CDE90A1007900C900D906846FEF7EAF8F0
:103BB00008B172B6FEE70F2000241F900320CDE964
:103BC0002004229402211FA82394FDF791FF08B13D
:103BD00072B6FEE748F20100CDE90E0440071D90E1
:103BE0000EA8FDF741FE002801D072B6FEE724B012
:103BF00010BD00000248016841F470010160704787
:103C000088ED00E02DE9F0430268234B234D244E5C
:103C1000244C4FF08049984207D0484505D0A8422F
:103C200003D0B04201D0A04203D122F070074A680D
:103C30003A431D4FDFF874C0DFF8748098420DD00E
:103C400048450BD0A84209D0B04207D0A04205D0C9
:103C5000B84203D0604501D0404503D122F44075FD
:103C6000CA682A434D6922F080022A4302608A68AA
:103C7000C2620A688262984207D0A04205D0B84268
:103C800003D0604501D0404501D10969016301219C
:103C90004161BDE8F0830000002C014000040040B9
:103CA0000008004000340140004001400044014051
:103CB0000048014010B501F01F030121046A99403A
:103CC0008C430462016A9A401143016210BD10B531
:103CD000846A0121626A824207D12177C06938BBB8
:103CE00084F83E1084F8441022E0A26A824208D18F
:103CF00002222277C069D8B984F83F1084F84510B1
:103D000016E0E26A824208D104222277C06978B9BB
:103D100084F8401084F846100AE0226B824207D1F2
:103D200008222277C06918B984F8411084F8471036
:103D30002046FEF7FAFB0020207710BD10B5846AFC
:103D4000616A814201D101200DE0A16A814201D165
:103D5000022008E0E16A814201D1042003E0216BE6
:103D6000814201D1082020772046FEF7DFFB0020AA
:103D7000207710BD10B5846A0121626A824203D1A6
:103D8000217784F83E1019E0A26A824204D1022011
:103D9000207784F83F1011E0E26A824204D10420C7
:103DA000207784F8401009E0226B824204D1082079
:103DB000207784F8411001E084F83D102046FEF79A
:103DC000B3FB0020207710BD10B5846842EA0322BF
:103DD00024F47F440A432243826010BD8268034B6F
:103DE0001A400A4342F00701816070478FFFCFFFFE
:103DF0002DE9F043026A22F001020262056A43687B
:103E000082691C4C25F0020522400C6822F0030256
:103E100014438A68194E2A43174D194FDFF864C0BE
:103E2000DFF86490A84207D0B04205D0B84203D072
:103E3000604501D0484506D122F00808CA6842EA28
:103E4000080222F00402A84207D0B04205D0B842CE
:103E500003D0604501D0484505D14D6923F4407336
:103E60001D438B692B43436084614968416302624F
:103E7000BDE8F0838FFFFEFF002C014000340140BD
:103E8000004001400044014000480140F0B5026A92
:103E900022F010020262056A42688369194C1B4EC7
:103EA00023400C6823F4407343EA042425F02003E4
:103EB0008D6843EA0513144DA84201D0B04206D1E3
:103EC000CF6823F0800343EA071323F04003A8429E
:103ED0000AD0B04208D00E4DA84205D00D4DA842E0
:103EE00002D00D4DA84207D14D6922F4406242EA4A
:103EF00085028D6942EA8502426084614968816376
:103F00000362F0BDFF8FFFFE002C01400034014032
:103F1000004001400044014000480140F0B5026A01
:103F200022F480720262056A4368C269194C1B4E12
:103F300022400C6822F00302144325F400728D68BD
:103F400042EA0522144DA84201D0B04206D1CF6802
:103F500022F4006242EA072222F48062A8420AD0D8
:103F6000B04208D00E4DA84205D00E4DA84202D056
:103F70000D4DA84207D14D6923F4405343EA051380
:103F80008D6943EA05134360C4614968C1630262F5
:103F9000F0BD00008FFFFEFF002C01400034014007
:103FA000004001400044014000480140F0B5026A71
:103FB00022F480520262056A4268C369194C1B4EA2
:103FC00023400C6823F4407343EA042425F400538F
:103FD0008D6843EA0533144DA84201D0B04206D1A2
:103FE000CF6823F4004343EA073323F48043A84215
:103FF0000AD0B04208D00E4DA84205D00D4DA842BF
:1040000002D00D4DA84207D14D6922F4404242EA48
:1040100085128D6942EA85124260C4614968016473
:104020000362F0BDFF8FFFFE002C01400034014011
:1040300000400140004401400048014030B5026AA0
:1040400022F480320262046A4268036D114D2B40F3
:104050000D681D4324F400330C8943EA04430E4CDD
:10406000A0420BD00D4CA04208D00D4CA04205D070
:104070000C4CA04202D00C4CA04204D14C6922F45A
:10408000803242EA04224260056549688164036225
:1040900030BD00008FFFFEFF002C014000340140C6
:1040A00000400140004401400048014030B5026A30
:1040B00022F480120262046A4268036D114D24F4F6
:1040C00000142B400D6843EA05230D8944EA05548A
:1040D0000D4DA8420BD00D4DA84208D00C4DA84262
:1040E00005D00C4DA84202D00B4DA84204D14D6919
:1040F00022F4802242EA8522426003654968C16455
:10410000046230BDFF8FFFFE002C014000340140EF
:1041100000400140004401400048014010B50468DF
:10412000A268234B1A404B681343224A13400A6883
:104130001A43A2604A68602A32D006DC302A34DD95
:10414000402A0ED0502A30D124E01B4B9A422CDA60
:10415000702A2AD10B69D1E902210068FFF734FEE9
:1041600023E00A68052A13D0B2F1011F10D00268BB
:10417000136A146A24F001041462026894690969DC
:1041800024F0F00444EA01119161006803620CE03C
:10419000012010BD0A698968006800F00FF804E08A
:1041A0000A698968006800F051F8002010BD00001D
:1041B0008FFFCFFFF8FFFEFF3000100010B5036A3D
:1041C000046A24F001040462846924F0F00444EADF
:1041D000021423F00A020A438461026210BD000047
:1041E00070B5046A24F0010404628469056A124E01
:1041F000B0420ED0B0F1804F0BD0104EB04208D07C
:104200000F4EB04205D00F4EB04202D00E4EB0421B
:1042100003D124F00304144301E044F001041A071D
:1042200024F0F00444EA126225F00A0301F00A01C6
:1042300019438261016270BD002C014000040040FE
:1042400000080040003401400040014010B5036AFE
:1042500023F0100303628369046A23F4704343EA82
:10426000023224F0A00343EA01118261016210BD11
:1042700030B5046A24F0100404628469056A24F4E9
:10428000407444EA022222F470444FF6FF7202EABC
:1042900003322243A02425F0A00304EA01111943AC
:1042A0008261016230BD0000074908480A7B012A8B
:1042B00007D14A69002A06D003689A1A8B6A1A4401
:1042C0008A620068486170471800002008000020DA
:1042D00030B5416EB9B1026891689268C1F342612C
:1042E0000B4B520F9C5CE50003F10804A25CB5FB8C
:1042F000F2F2A0F86A205A5C615CD200B2FBF1F1E4
:10430000A0F8681030BD0121A0F86A10F8E700009D
:10431000306F000890F82810C90706D001684A6875
:10432000C36A22F400321A434A6090F828108907C1
:1043300006D501684A68036B22F480321A434A604A
:1043400090F82810490706D501684A68436B22F4A3
:1043500080221A434A6090F82810090706D50168A0
:104360004A68836B22F400421A434A6090F828108E
:10437000C90606D501688A68C36B22F480521A43C5
:104380008A6090F82810890606D501688A68036C4F
:1043900022F400521A438A6090F82810490611D579
:1043A00001684A68436C22F480121A434A60416CE7
:1043B000B1F5801F06D101684A68836C22F4C002FF
:1043C0001A434A6090F82810090606D501684A6821
:1043D000C06C22F4002202434A607047F8B5002600
:1043E0000446C0F88C60FDF741F905462068006876
:1043F0006FF07E47000708D52B4600224FF40011CE
:104400002046009700F030FA60B920680068400745
:104410000AD52B4600224FF480012046009700F079
:1044200023FA08B10320F8BD2020C4F88400C4F8A2
:10443000880044F86C6F00202675F8BD10B5806ABE
:104440000021A0F85E10A0F85610FEF7D6FB10BDB4
:1044500070B5846AD4F88400D4F8885021688968DB
:104460004FF00006090606D5212804D1A4F85660AD
:10447000204600F06FF820688068400606D5222D9F
:1044800004D1A4F85E60204600F048F8D4F88C000F
:1044900040F01000C4F88C002046FEF7AEFB70BD63
:1044A00010B50146806A0968096889061CD4002194
:1044B000A0F85E1001680A6822F480720A60016840
:1044C0008A6822F001028A6001688A6822F040024C
:1044D0008A602021C0F88810C16E012904D10168CA
:1044E0000A6822F010020A60C16E012902D0FEF7AC
:1044F0004FFD10BDB0F85C10FEF71AFB10BD10B5F3
:10450000806AC16E012902D0FEF743FD10BDB0F8EC
:104510005C104908FEF70CFB10BD000001680A683A
:1045200022F490720A6001688A68094B1A408A6016
:10453000C16E012904D101680A6822F010020A60E4
:104540002021C0F888100021C16601677047000073
:10455000FEFFFFEF01680A6822F0C0020A600168EE
:104560008A6822F400028A602021C0F88410704713
:104570002DE9F0410446016880682269E36910432F
:10458000626900251A431043DFF82CC20A688B4B7E
:104590001A4002430A6020684168E26821F44051F1
:1045A000114341602168A069614501D0226A10432E
:1045B0008A68834B1A4002438A602068C16A626A33
:1045C00021F00F011143C1627E4923687E488B426E
:1045D0000DD1D0F8880010F0030006D0012855D086
:1045E000022842D003283FD152E001203DE0774924
:1045F0008B420BD1D0F8880010F00C0035D0042885
:1046000033D0082840D00C282ED141E070498B428D
:104610000BD1D0F8880010F0300026D0102835D00B
:10462000202831D030281FD132E06A498B420BD18B
:10463000D0F8880010F0C00017D0402826D080287D
:1046400022D0C02810D123E063450DD1D0F88800D6
:1046500010F4406009D0B0F5806F17D0B0F5006F4E
:1046600012D0B0F5406F13D010205B4A5B4F00268C
:104670004FF40041634539D160B102280DD00428C0
:104680000DD0082831D10EE00220EEE70420ECE73F
:104690000820EAE7FDF71AFB03E0114603E0FDF707
:1046A00039FB01007DD0606A37F810206768B1FBE4
:1046B000F2F007EB470383426CD8B0EB073F69D8B1
:1046C000002308461946FBF7A3FD090241EA1061E1
:1046D00002027808101871413A460023FBF798FD52
:1046E0003F4AA0F54071914259D953E0E3694FF632
:1046F000EF788B422DD109284CD2DFE800F0050875
:104700000D4B274B4B4B0E00FDF7E0FA01E0FDF798
:10471000EFFA010001D144E01146606A37F8100059
:10472000B1FBF0F04100606801EB5001B1FBF0F02B
:1047300080B2A0F1100141452CD84FF6F071014034
:10474000C0F3420001432068C1602AE0FDF7E2FAAD
:10475000DFE709281ED2DFE800F005080D1D1F1D48
:104760001D1D0E00FDF7B2FA01E0FDF7C1FA0100D0
:1047700001D116E01146606A37F81000B1FBF0F184
:10478000606801EB5001B1FBF0F080B2A0F11001C4
:10479000414504D9012504E0FDF7BCFAE7E72168AB
:1047A000C8600120A4F86A0024F8680F2846A660B3
:1047B000E660BDE8F081000000800040F369FFCFB3
:1047C000FFF4FF1100380140001002400044004097
:1047D00000480040004C00400024F400186F00081E
:1047E000FFFC0F0070B58165A0F85C200025044631
:1047F000C0F88C502220C4F88800E06FD8B1174967
:10480000C162E16F164813460863E16F15484863BB
:10481000E06F8563A66D216832462431E06FFCF7B6
:10482000E3FD40B11020C4F88C0004F8805F202024
:104830006060012070BD84F880502068016841F4F8
:10484000807101602068816841F001018160206809
:10485000816841F040018160002070BDA1440008E2
:10486000FF440008514400082DE9F0479A461746D6
:104870000E4604464FF000094FF02008089D39E02D
:10488000681C37D0FCF7F2FEA0EB0A00A84222D841
:104890000DB32068016849072CD5C069C0430005E5
:1048A00028D421684FF4006008622068016821F470
:1048B000D07101602068816821F001018160C4F835
:1048C0008480C4F88880C4F88C8000BF84F880900D
:1048D0000320BDE8F0872068016821F4D0710160F1
:1048E0002068816821F001018160C4F88480C4F8E7
:1048F0008880EBE72068C06936EA000004D0002019
:10490000B842BDD00020E4E70120F9E70148FEF7F6
:1049100075B9000098020020FEE700000FB4054BB7
:1049200010B503A9044A029801F06AF810BC5DF8BA
:1049300014FB000021640008E00000200FB41CB547
:104940000246002007AC00290BD0491ECDE900210A
:10495000054B6A462146069801F052F8009A00215C
:1049600011701CBC5DF814FB2F61000803B40198A2
:104970004100009850EAC12018BF04204A0D18BF1A
:1049800040F0010040F2FF72B2EB515F08BF40F00F
:104990000200012808BF052002B070470907090E70
:1049A000002804DB00F1E02080F80014704700F0DC
:1049B0000F0000F1E02080F8141D70470000000097
:1049C00070B59B482DED020B2DED068B079D25F054
:1049D0000044A04218DC9748844202DC0AD10698C1
:1049E00040B19DED060BBDEC068B02B0BDE87040FA
:1049F00000F0FABE002DCCBF9FED8F0B9FED900B0A
:104A0000BDEC068B02B070BD8F48A04215DD8F480B
:104A1000A042D8BF4FF0FF3458DD9DED060B51EC9E
:104A2000100BFFF7A3FF042808BF00F001FF9DED66
:104A3000060BBDEC068B02B070BD9DED060B51EC74
:104A4000100B01F0E1FCCDE9060181489FED828B5E
:104A5000A0423CDD8248A0421FDD00249FED82ABD6
:104A60009DED060B53EC1A2B51EC100BFBF713FCCE
:104A70009DED060B41EC190B53EC1A2B51EC100B6E
:104A8000FBF7B0FC53EC182BFBF7A6FC53EC192BEF
:104A9000FBF76DFECDE9060149E09DED060B012413
:104AA00053EC182B51EC100BFBF7F5FB9DED060BAF
:104AB00041EC190B53EC182B51EC100BFBF78CFC51
:104AC00053EC192BFBF753FECDE906012FE06848A4
:104AD000A0421FDD02249FED689B9DED060B53EC69
:104AE000192B51EC100BFBF77DFC53EC182BFBF74B
:104AF000D2FB9DED060B41EC180B53EC192B51EC3E
:104B0000100BFBF769FC53EC182BFBF730FECDE9DB
:104B100006010CE09DED060B032453EC102B9FEDDA
:104B2000580B51EC100BFBF722FECDE906019DED71
:104B3000060B53EC102B51EC100BFBF753FC41EC24
:104B4000180B53EC182BFBF74DFC41EC190B4E489E
:104B50000621B0EE490AF0EE690A784400F030FD13
:104B600053EC182B51EC100BFBF73CFC41EC180BF1
:104B70004648B0EE490AF0EE690A0521784400F093
:104B80001FFD53EC192B51EC100BFBF72BFC41ECE8
:104B9000100B51EC180B53EC102B002C0EDAFBF71A
:104BA0007AFB9DED061B53EC112BFBF71BFC9DEDD7
:104BB000061B53EC112BFBF712FC35E0FBF76BFBEC
:104BC0009DED061B53EC112BFBF70CFC41EC100B7D
:104BD0002F48784400EBC40090ED001B51EC100B03
:104BE00053EC112BFBF7F8FB9DED061B53EC112B3F
:104BF000FBF7F2FB41EC100B2648784400EBC400B5
:104C000090ED001B51EC100B53EC112BFBF7E7FB65
:104C100041EC100B002DA2BFBDEC068B02B070BDA5
:104C200051EC100B81F0004141EC100B01E700004A
:104C3000000010440000F07F182D4454FB21F93F80
:104C4000182D4454FB21F9BF0000DC3F0000203E3A
:104C50000000F33F00000000000000000000F03FF3
:104C60000000E63F000000000000000000000040DF
:104C70000080034000000000000000000000F83F3A
:104C8000000000000000F0BF32360000E8350000F0
:104C9000723500002A35000070B56B4E2DED040B07
:104CA0002DED028B82B0DDF81CC0DDE905235C42EE
:104CB0002CF000411C4341EAD474049D22F00040D2
:104CC000B44205D86C422C4340EAD474B4420BD9A8
:104CD0009DED061B9DED040B02B0BDEC028B04B0F4
:104CE000BDE8704000F08ABDACF14054A4F17F648F
:104CF0001C430BD0022404EAAC7444EAD27405438A
:104D00009FED538B9FED542B07D015E09DED040BC9
:104D100051EC100B01F070FB42E0002C11BF012C94
:104D20009DED040B02B0BDEC028B04BF04B070BD5E
:104D3000022C38D0032C3BD00B439FED491B9FED39
:104D40004A0B0AD0B14218D1B04209D121F08041BA
:104D500020F08040079105900FE0002A15DA10E05E
:104D6000434B7B44002C08BF93ED000B0DD0012C6E
:104D700010D0022C17D0032C1AD0B0421DD1002A1B
:104D800003DAB0EE410AF0EE610A02B0BDEC028B2C
:104D900004B070BD93ED000B51EC100B81F000419D
:104DA00041EC100BF1E7B0EE480AF0EE680AECE7D0
:104DB000B0EE420AF0EE620AE7E7401A00153C281E
:104DC000C8BF8DED000B19DCBCF1000FBEBF10F1A8
:104DD0003C0F9FED290B8DED000B0FDB9DED060BBE
:104DE00053EC102B9DED040B51EC100BFBF7BFFCAB
:104DF00001F00AFB01F000FBCDE90001002C08BF27
:104E00009DED000BC1D0012C10D0022C9FED1C0B8E
:104E100053EC102B9DED000B51EC100B0DD0FBF75C
:104E2000DBFA53EC182BFBF7D7FAB9E7019880F0BF
:104E3000004001909DED000BA7E7FBF7CDFA53EC86
:104E4000182BFBF7CCFAABE70000F07F0000000066
:104E5000182D4454FB210940182D4454FB2109C04E
:104E6000182D4454FB21F9BF182D4454FB21F93F60
:104E70008A34000000000000000000000000000074
:104E8000075C143326A6A13C10B52F499FED2C1BBF
:104E90002DED020B84B0059820F000408842D8BF69
:104EA0009DED040B2DDD2949884209D1049840B9B4
:104EB0004FF0010000F0DCFC00F0AAFC06B010BDD1
:104EC00005DB9DED040B00F08FFC06B010BD6846BD
:104ED0009DED040B00F0A0F810F0030004BF9DED61
:104EE000021B9DED000B0CD001280ED09DED021B86
:104EF0009DED000B022817D0012000F0DDFB06B06D
:104F000010BD00F0A5FA06B010BD9DED021B9DED91
:104F1000000B012000F0D0FB51EC100B81F00041A0
:104F200006B041EC100B10BD00F092FA51EC100BE2
:104F300081F0004106B041EC100B10BD00000000F4
:104F40000000000000000000FB21E93F0000F07FAE
:104F500010B52F499FED2C1B2DED020B84B0059849
:104F600020F000408842DCBF00209DED040B32DDC4
:104F70002849884209D1049840B94FF0010000F057
:104F800077FC00F045FC06B010BD05DB9DED040B81
:104F900000F02AFC06B010BD68469DED040B00F041
:104FA0003BF810F0030011D0012818D09DED021B32
:104FB0009DED000B02281AD000F04AFA51EC100BBC
:104FC00081F0004106B041EC100B10BD9DED021BBD
:104FD0009DED000B012000F06FFB06B010BD9DEDB4
:104FE000021B9DED000B00F033FA06B010BD01204E
:104FF00000F062FB51EC100B81F0004106B041EC77
:10500000100B10BD000000000000000000000000B8
:10501000FB21E93F0000F07F2DE9F14F04462DED23
:10502000020B2DED088B8AB09FEDE70B80ED020B94
:10503000139EE74826F0004585420ADC9DED120BE1
:10504000002084ED000B0AB0BDEC088B03B0BDE876
:10505000F08FE0489FEDE0AB9FEDE1BBA84247DD5C
:10506000E14F9FEDE39B9FEDE48B9DED120B53EC25
:105070001A2B51EC100B002E1CDDFBF7ADF941ECA7
:10508000100BBD4208D053EC1B2B51EC100BFBF75F
:10509000A3F9C4E900010BE053EC192B51EC100B00
:1050A000FBF79AF953EC182BFBF796F9C4E90001CA
:1050B0000120C8E7FBF7EFF841EC100BBD4208D028
:1050C00053EC1B2B51EC100BFBF7E5F8C4E9000186
:1050D0000BE053EC192B51EC100BFBF7DCF853EC05
:1050E000182BFBF7D8F8C4E900014FF0FF30AAE70E
:1050F000C348A84279DB9DED120B51EC100B01F077
:1051000083F941EC180B9FEDC00B53EC102BFBF710
:1051100069F99FEDBF1B53EC112BFBF7BCF8FBF7B4
:10512000E4F90746FBF7D0F941EC190B53EC1A2BC5
:10513000FBF758F953EC182BFBF751F941EC180B1E
:1051400053EC1B2B51EC190BFBF74CF9DFF8C8A201
:1051500041EC100B4FEA15580125FA4453EC102B83
:1051600051EC180BFBF738F9032DC4E900013DD0D1
:10517000C1F30A5005EB4511A8EB0000113981423B
:1051800034DA0AEB051BB0EE48AA9BED000BF0EEFB
:1051900068AA53EC102B51EC190BFBF723F941ECE7
:1051A0001B0B51EC1A0B53EC1B2BFBF715F941ECC5
:1051B000180B51EC1A0B53EC182BFBF70DF953ECB1
:1051C0001B2BFBF709F99BED020B41EC1A0B53EC7F
:1051D000102B51EC190BFBF705F953EC1A2BFBF7CD
:1051E000FBF841EC100B6D1CB8E70EE0002EA8BFD9
:1051F0003846BFF628AF94ED000B51EC100B81F050
:105200000041C4E9000178421DE7C6F3130040F4F1
:10521000801EC6F30A50A0F2F530471100F01F05BA
:10522000C5F12000DDF848B00890002006900790F6
:105230000520EC467949002D07EB0002794408BFB0
:1052400051F8221009D051F8223001EB8201AB4015
:105250004A68089922FA01F11943A1FB0E26A1FB25
:105260000B131A449A4234BF0123002303EB0608B0
:105270000CEB8003D3E901A60E448E4234BF01211A
:10528000002192448A4411B1924502D903E092452B
:1052900001D2012100E00021C3E901A641444CF8FC
:1052A0002010011EA0F10100C4DC029800F10050A2
:1052B000850F0298DDE903678000DDF81480FBF7B5
:1052C00003F941EC1A0B3046FBF7EAFA9FED541B49
:1052D00053EC112BFBF786F841EC1B0B3846FBF720
:1052E000DFFA9FED511B53EC112BFBF77BF841ECE0
:1052F000180B4046FBF7D4FA9FED4D1B53EC112BD6
:10530000FBF770F841EC190B51EC180B53EC192B0F
:10531000FAF7C1FF53EC1B2BFAF7BDFF53EC1A2B26
:10532000FAF7B9FFCDE90801002008909DED080BC0
:1053300053EC1A2B51EC100BFBF74EF853EC1B2BD4
:10534000FBF74AF853EC182BFBF746F853EC192BF4
:10535000FBF745F89FED381B53EC112BFBF742F898
:105360009FED370B41EC180B53EC102B9DED080B08
:1053700051EC100BFBF736F853EC182BFAF78BFFB8
:105380009FED310B41EC180B53EC102B9DED080BEE
:1053900051EC100BFBF726F853EC182BFAF77BFFB8
:1053A00041EC100B139810F0004F06D06D4251ECF9
:1053B000100B81F0004141EC100B284684ED000BEE
:1053C00041E60000000000000000000000000000B6
:1053D000FB21E93F7CD9024000004054FB21F93F0A
:1053E0003163621A61B4D03DFB21F93F0000000037
:1053F0000000601A61B4D03D7370032E8A19A33B7C
:10540000FB2139410000000083C8C96D305FE43FD3
:10541000000000000000E03F9A300000E82F00008C
:10542000000000000000103E000000000000103CE2
:10543000000000000000103A182D4454FB21F93DF3
:105440003326A611460B113C00000054FB21F93D08
:1054500010B52DED040B2DED088B82B0B0EE419A06
:10546000F0EE619A0B9820F000449FED4BABB4F145
:10547000795F11DA9DED0A0B51EC100BFBF735F853
:10548000002801BFB0EE4A0AF0EE6A0A02B0BDEC95
:10549000088B04BF04B010BD9DED0A0B53EC102B1C
:1054A00051EC100BFAF79EFF41EC180B3C4806211B
:1054B000B0EE480AF0EE680A784400F081F853EC48
:1054C000182B51EC100BFAF78DFF9DED0A0B41ECF8
:1054D0001B0B53EC192B51EC100BFAF783FF41EC2B
:1054E000190B53EC1B2B51EC180BFAF77BFF53EC09
:1054F000192BFAF771FF9FED2C0B41EC190B53ECB4
:10550000102B51EC180BFAF76DFF41EC100B2848EB
:10551000844210DA53EC192B51EC100BFAF75CFFB4
:1055200053EC1A2BFAF75BFF41EC100B02B0BDEC09
:10553000088B04B010BD1F48A042BCBF9FED1E1BCE
:105540008DED001B06DBA4F50010019000200090FB
:105550009DED001B51EC100B53EC112BFAF73CFFA7
:105560009DED000B41EC180B53EC102B51EC1A0B7A
:10557000FAF732FF41EC1A0B53EC192B51EC180BD4
:10558000FAF72AFF53EC1A2BFAF729FF41EC100B1C
:10559000CCE7000000000000000000000000F03F29
:1055A000042D000000000000000000000000E03FAB
:1055B0003333D33F0000E93F000000000000D23F3A
:1055C00070B504462DED028B4D1E00EBC500B0EE0C
:1055D000408AF0EE608A90ED000B35F0060017D09F
:1055E00053EC182B51EC100BFAF7FCFE41EC100BAE
:1055F0006D1E04EBC50090ED001B51EC100B53EC3D
:10560000112BFAF748FE41EC100B35F00600E7D1FC
:10561000022D36D0042D1CD0062D1CBFBDEC028BF4
:1056200070BD53EC182B51EC100BFAF7DBFE94ED28
:105630000A1B53EC112BFAF72EFE53EC182BFAF73A
:10564000D1FE94ED081B53EC112BFAF724FE41EC2C
:10565000100B53EC182B51EC100BFAF7C3FE94ED22
:10566000061B53EC112BFAF716FE53EC182BFAF726
:10567000B9FE94ED040B53EC102BFAF70CFE41EC41
:10568000100B53EC182B51EC100BFAF7ABFE94ED0A
:10569000021B53EC112BFAF7FEFD53EC182BFAF713
:1056A000A1FE94ED001B53EC112BFAF7F4FDBDECB9
:1056B000028B41EC100B70BD31B504462DED040B8F
:1056C0002DED0A8BB0EE41BAF0EE61BA0B989DED6C
:1056D0000A0B20F00040B0F1795F0DDA51EC100BAD
:1056E000FFF744F9042808BF00F0A2F89DED0A0B6B
:1056F000BDEC0A8B05B030BD53EC102B51EC100BF8
:10570000FAF770FE41EC180B9DED0A0B53EC182BC9
:1057100051EC100BFAF766FE41EC190B2C48B0EE79
:10572000480AF0EE680A05217844FFF749FF9FED2B
:105730002ACBB0EE40AAF0EE60AA9CB353EC1C2B2F
:1057400051EC190BFAF74EFE41EC1C0B53EC1A2BE3
:1057500051EC190BFAF746FE9FED210B41EC190BAA
:1057600053EC102B51EC1B0BFAF73CFE53EC192BAE
:10577000FAF732FE53EC182BFAF734FE53EC1B2BDE
:10578000FAF72AFE53EC1C2BFAF726FE9DED0A1BB6
:1057900053EC112BFAF723FEBDEC0A8B05B041EC5C
:1057A000100B30BDFFE753EC1A2B51EC180BFAF736
:1057B00019FE53EC1C2BFAF76EFD53EC192BFAF77C
:1057C00011FE9DED0A1B53EC112BFAF764FDE3E784
:1057D000942B000000000000495555555555C5BF94
:1057E000000000000000E03F10B553EC102B51EC1E
:1057F000100BFAF750FD41EC100B10BD10B553EC37
:10580000112B51EC100BFAF746FD41EC100B10BDBB
:105810009FED050B10B553EC102B51EC100BFAF764
:10582000A6FF41EC100B10BD0000000000000000BE
:105830009FED050B10B553EC102B51EC100BFAF744
:10584000D1FD41EC100B10BD000000000000001065
:1058500002E008C8121F08C1002AFAD17047704739
:10586000002001E001C1121F002AFBD17047000097
:105870000149086070470000E40000202DE9FF5F47
:1058800082B00021DDE90430020DDDF840B00343B1
:1058900018D044F61050A2F2FF324243151411986A
:1058A00001281FD0A5EB0B00401C5FEA000A4FF057
:1058B00000064E4FDFF83891B046504615D5CAF174
:1058C000000413E0119801244AA3012801D16FEAD2
:1058D0000B010298119AC0E90031C0E9024206B0FA
:1058E000BDE8F09FCBF10000DFE704460021404A0D
:1058F000491842EB0450CDE9001012E0E00707D050
:1059000032463B4640464946FAF76CFD804689469A
:1059100032463B4610461946FAF764FD06460F46E6
:105920006410002CEAD1DDE90401DDE90023BAF1BD
:10593000000F06DAFAF756FD42464B46FAF752FDDB
:1059400005E0FAF714FF42464B46FAF710FF04460B
:105950000E460022284BFAF7FBFD03D84FF0FF302C
:10596000014607E00022254B20463146FAF793FC1A
:10597000FAF76CFF102409E0002C0ADB0A2200234E
:10598000FAF746FC039B30321A55641E50EA0102B6
:10599000F2D1641C039AC4F111031444119A012A30
:1059A00003D0012208430DD10AE0084304D00020AF
:1059B0004FF0110B119072E7A3EB0B056D1E0DE07C
:1059C0005B4504DD4FF0000205F1010504E003DA58
:1059D0004FF00002A5F10105002AECD002981199C0
:1059E000C0E90231C0E9004579E700000000144039
:1059F0000000F03F300000000000F0430000E03FF6
:105A00002DE9FF4F95B09B468946064600250FE2DB
:105A1000252877D100242746F84A0121059400E083
:105A2000044316F8013F203B01FA03F01042F7D17E
:105A300030782A2811D06FF02F033078A0F130028F
:105A4000092A16D8059A44F0020402EB820203EBFD
:105A500042021044761C0590EFE759F8042B05929A
:105A6000002A03DA504244F40054059044F0020442
:105A7000761C30782E2816D116F8010F44F0040455
:105A80002A280DD06FF02F023078A0F13003092BB7
:105A900009D807EB870302EB4303C718761CF3E72B
:105AA00059F8047B761C30786C280FD006DC4C2823
:105AB00017D068280DD06A2814D104E0742810D0BB
:105AC0007A280FD10DE044F400140AE044F4801465
:105AD00001E044F440147278824202D104F580144B
